:020000040800F2
:1000000000000220A13E00087D0C00087F0C0008C3
:10001000810C0008830C0008850C0008000000001B
:10002000000000000000000000000000870C000835
:10003000890C0008000000008B0C00088D0C0008E3
:10004000F13E0008F13E0008F13E0008F13E0008D4
:10005000F13E0008F13E0008F13E0008F13E0008C4
:10006000F13E0008F13E0008F13E0008F13E0008B4
:10007000F13E0008F13E0008F13E0008F13E0008A4
:10008000F13E0008F13E0008950C0008F13E000822
:10009000F13E0008F13E0008F13E0008F13E000884
:1000A000F13E0008F13E0008F13E0008F13E000874
:1000B000F13E0008F13E0008F13E0008F13E000864
:1000C000F13E0008F13E0008F13E0008F13E000854
:1000D000F13E0008F13E0008F13E0008F13E000844
:1000E000F13E0008F13E0008F13E0008F13E000834
:1000F000F13E0008F13E0008F13E0008F13E000824
:10010000F13E0008F13E0008F13E0008F13E000813
:10011000F13E0008F13E0008F13E0008F13E000803
:10012000F13E0008F13E0008F13E0008F13E0008F3
:10013000F13E0008F13E0008F13E0008F13E0008E3
:10014000F13E0008F13E0008F13E0008F13E0008D3
:10015000F13E0008F13E0008F13E0008F13E0008C3
:10016000F13E0008F13E0008F13E0008F13E0008B3
:10017000F13E0008F13E0008F13E0008F13E0008A3
:10018000F13E0008F13E0008F13E0008F13E000893
:10019000F13E000800000000F13E0008F13E0008BA
:1001A000F13E0008F13E0008F13E0008F13E000873
:1001B000F13E0008F13E0008F13E0008F13E000863
:1001C000F13E0008F13E0008F13E0008F13E000853
:0801D000F13E0008F13E0008B9
:1001D8000348044B834202D0034B03B118477047CE
:1001E8000C0000200C000020000000000548064B11
:1001F8001B1AD90F01EBA301491002D0034B03B11D
:10020800184770470C0000200C0000200000000078
:1002180010B5064C237843B9FFF7DAFF044B13B146
:100228000448AFF300800123237010BD0C000020A8
:1002380000000000F43E000808B5044B1BB1044957
:100248000448AFF30080BDE80840CFE70000000095
:1002580010000020F43E000870B50F4B0F4DAB4264
:10026800A3EB050607D0B610002455F8043B01346B
:100278009847A642F9D803F039FE094D094B5E1B91
:10028800AB424FEAA60606D0002455F8043B0134D9
:100298009847A642F9D870BD543F0008543F00085B
:1002A800543F0008583F0008830730B547D0541E14
:1002B800002A3ED0CAB2034601E0013C39D303F814
:1002C800012B9D07F9D1032C2CD9CDB205EB0525BF
:1002D8000F2C05EB054535D9A4F1100222F00F0CBF
:1002E80003F1100EE6444FEA121C1A46C2E9005503
:1002F800C2E9025510327245F8D10CF1010214F02E
:100308000C0F03EB021204F00F0C13D0ACF1040332
:1003180023F003030433134442F8045B9342FBD1F4
:100328000CF003042CB1C9B21C4403F8011BA3420E
:10033800FBD130BD64461346002CF4D1F9E70346DF
:100348001446C0E71A46A446E0E700BF53B94AB9C5
:10035800002908BF00281CBF4FF0FF314FF0FF30C5
:1003680000F06AB9ADF1080C6DE904CE00F006F8AA
:10037800DDF804E0DDE9022304B070472DE9F04719
:10038800089D0E4604460F46002B4AD194468C45DC
:10039800B2FA82F260D942B1C2F12003974020FA42
:1003A80003F30CFA02FC1F4394404FEA1C4E1FFA59
:1003B8008CF6B7FBFEF1230C0EFB117743EA0743DB
:1003C80001FB06F098420AD91CEB030301F1FF3741
:1003D80080F01581984240F21281023963441B1A59
:1003E800A4B2B3FBFEF00EFB103344EA034400FB57
:1003F80006F6A6420AD91CEB040400F1FF3380F08C
:100408000081A64240F2FD806444023840EA01407F
:10041800A41B00211DB1D4400023C5E90043BDE859
:10042800F0878B4205D90DB1C5E9000100210846C6
:10043800F5E7B3FA83F1002946D1B34202D38242E9
:1004480000F2F580841A66EB030201201746002D9E
:10045800E5D0C5E90047E2E7002A40F09380A1EB28
:100468000C034FEA1C471FFA8CFE0121B3FBF7F679
:1004780007FB1630230C43EA00430EFB06F09842B4
:1004880008D91CEB030306F1FF3802D2984200F2A8
:10049800D08046461B1AA4B2B3FBF7F007FB103313
:1004A80044EA03440EFB00FEA64508D91CEB0404ED
:1004B80000F1FF3302D2A64500F2B6801846A4EB3D
:1004C8000E0440EA0640A5E7C1F120078B4022FA56
:1004D80007FC4CEA030C06FA01FE20FA07F426FA98
:1004E80007F344EA0E0400FA01F84FEA1C404FEA09
:1004F8001449B3FBF0FE1FFA8CF600FB1E3349EAE1
:1005080003430EFB06F9994502FA01F20BD91CEBDD
:1005180003030EF1FF3A80F08580994540F282800E
:10052800AEF1020E6344A3EB0909A4B2B9FBF0F3E0
:1005380000FB139944EA094403FB06F6A64208D9CE
:100548001CEB040403F1FF3068D2A64266D9023BD3
:10055800644443EA0E40A41BA0FB02E6B44273467F
:10056800B14652D34FD05DB1B8EB030264EB090436
:1005780004FA07F722FA01F31F43CC40C5E90074D7
:1005880000214CE7C2F1200120FA01F30CFA02FC29
:1005980026FA01F1964033434FEA1C471FFA8CFEB6
:1005A800B1FBF7F007FB1016190C41EA064100FBF6
:1005B8000EF68E4204FA02F408D91CEB010100F190
:1005C800FF382DD28E422BD902386144891B9BB249
:1005D800B1FBF7F607FB161143EA014306FB0EF1E0
:1005E800994208D91CEB030306F1FF3814D299424B
:1005F80012D9023E63445B1A46EA004136E739469F
:10060800EDE6184602E7F045ADD2BEEB020366EB15
:100618000C060138B146A6E74646ECE7034698E7DC
:100628004046D3E7D6467EE76444023847E70846A3
:100638000DE7023E63442DE7704700BF72B6FEE740
:1006480000B595B03822002106A8FFF72DFE00203E
:100658000190029003900490059002F09FFB012303
:1006680006934FF4A023079302230D9303220E92BF
:100678000F935522109211931293139306A801F029
:10068800FFFC80B90F2301930323029300230393F4
:100698000493059304210DEB010001F0A7FF20B995
:1006A80015B05DF804FBFFF7C9FFFFF7C7FF08B5F2
:1006B80001F098FCFFF7C4FF00F00AF800F062F8B8
:1006C80000F0E6F900F03EF900F05CFAFEE7000001
:1006D80070B58AB000240594069407940894099488
:1006E800254BDA6C42F02002DA64DA6C02F0200260
:1006F8000092009ADA6C42F00102DA64DA6C02F0D5
:1007080001020192019ADA6C42F00402DA64DA6CAE
:1007180002F004020292029ADA6C42F00802DA64E9
:10072800DA6C02F008020392039ADA6C42F00202D1
:10073800DA64DB6C03F002030493049B0F4E224639
:100748008021304602F024FB80230593012506957D
:1007580007940323089305A9304602F029FA1023C9
:1007680005934FF404130693079505A9044802F06E
:100778001FFA0AB070BD00BF001002400008004810
:100788000004004810B59AB00024179418941994DE
:10079800202221460FA8FFF787FD3C222146684604
:1007A800FFF782FD3E484FF0A04303604FF440330B
:1007B80043608460C4600461012343610422826150
:1007C80004774477036280F82440C462046380F8A5
:1007D8003840C46380F8404000F0AAFA00284DD1A0
:1007E8000023179317A92E4801F0EAFA002848D1E8
:1007F8002C4B0F9306231093002311937F22129200
:100808000422139214930FA9254800F04FFD0028E5
:100818003AD1244B009309230193012302937F23A8
:1008280003930423049300230593032208928DF86D
:1008380024308DF825308DF82630A0220A928022A7
:100848000B928DF830306946154800F0ABFFF0B9CF
:10085800154B009340F20F1301936946104800F0BE
:10086800A1FFB8B9114B009340F2152301936946D3
:100878000B4800F097FF80B91AB010BDFFF7DEFEF5
:10088800AEE7FFF7DBFEB3E7FFF7D8FEC1E7FFF7F8
:10089800D5FEDDE7FFF7D2FEE4E7FFF7CFFEEBE793
:1008A8002800002002003004040060081000C01076
:1008B80010B59CB0044600211791189119911A910E
:1008C8001B91542202A8FFF7EFFC2368B3F1A04F55
:1008D80001D01CB010BD4FF4004302934FF00053F9
:1008E800139302A801F0A8FF30BB154BDA6C42F451
:1008F8000052DA64DA6C02F400520092009ADA6C60
:1009080042F00102DA64DB6C03F001030193019BFE
:100918000B231793032318930024199417A94FF056
:10092800904002F045F922462146122002F018FBB9
:10093800122002F025FBCCE7FFF780FED5E700BFC9
:100948000010024000B58DB02422002103A8FFF753
:10095800ABFC00230093019302931348134A0260EF
:100968004360836040F6FF72C260036183610323C2
:100978000393012205920F23079309920B9303A96E
:1009880002F024FD50B900230093029369460648FB
:1009980002F002FE28B90DB05DF804FBFFF74EFE29
:1009A800F1E7FFF74BFEF6E7940000200004004053
:1009B8000268094B9A4200D0704782B003F564433D
:1009C8001A6E42F400621A661B6E03F40063019308
:1009D800019B02B0704700BF002C014000B589B0F0
:1009E8000023039304930593069307930268124B1D
:1009F8009A4202D009B05DF804FB03F503339A6DFF
:100A080042F002029A659A6D02F002020192019A7E
:100A1800DA6C42F00102DA64DB6C03F00103029342
:100A2800029BC023039302230493079303A94FF067
:100A3800904002F0BDF8DDE70004004000B587B043
:100A480000230193029303930493059302680F4BC9
:100A58009A4202D007B05DF804FB03F56443DA6CF0
:100A680042F00102DA64DB6C03F001030093009B9F
:100A78004FF4E0630193022302930623059301A92F
:100A88004FF0904002F094F8E4E700BF002C0140DA
:100A980010B598B000241594169417940E940F94DA
:100AA800109411941294139414943422214601A89A
:100AB800FFF7FAFB3148324B036044602023836020
:100AC80041F29903C36004614461846102F04EFC01
:100AD800002841D1002315934FF400121692179362
:100AE80015A9264802F058FD002838D100220E9298
:100AF8000F92109211921292139214920EA91F48FB
:100B080002F00CFD00282DD104220EA91B4802F08A
:100B180005FD50BB08220EA9184802F0FFFC38BB9F
:100B28000023019302930393049305934FF4005217
:100B380006920793089309934FF000720A920B9359
:100B48000C930D9301A90D4802F07CFD98B90B4850
:100B5800FFF774FF18B010BDFFF770FDBAE7FFF795
:100B68006DFDC3E7FFF76AFDCEE7FFF767FDD1E745
:100B7800FFF764FDD4E7FFF761FDE8E7E000002038
:100B8800002C014008B51748174B03604FF4E133B8
:100B9800436000238360C36003610C224261836168
:100BA800C36103624362836203F0A9F870B900214C
:100BB8000C4803F01CF960B900210A4803F03CF91D
:100BC80050B9084803F0F4F848B908BDFFF736FDF6
:100BD800EDE7FFF733FDEFE7FFF730FDF1E7FFF74C
:100BE8002DFDF2E72C0100200044004010B59CB018
:100BF800044600211791189119911A911B915422BA
:100C080002A8FFF751FB2268174B9A4201D01CB08B
:100C180010BD0223029302A801F00EFE00BB134B85
:100C28009A6D42F400329A659A6D02F4003200928D
:100C3800009ADA6C42F00802DA64DB6C03F008030D
:100C48000193019B602317930223189300231993A0
:100C58001A9307231B9317A9054801F0A9FFD6E7A4
:100C6800FFF7ECFCDBE700BF004400400010024047
:100C7800000C0048FEE7FEE7FEE7FEE7FEE77047E8
:100C88007047704708B501F0BDF908BD08B50248BE
:100C980000F098F908BD00BF2800002000B583B017
:100CA8000B4B1A6E42F001021A661A6E02F001022C
:100CB8000092009A9A6D42F080529A659B6D03F0FB
:100CC80080530193019B02F0EFF803B05DF804FB39
:100CD8000010024010B430300B0A9B0003F00C03E4
:100CE800C45801F01F014FF01F0C0CFA01FC24EA54
:100CF8000C0CC2F384628A404CEA0202C2505DF8CE
:100D0800044B704710B414304B0E9B0003F00403DF
:100D1800C458C1F304514FF0070C0CFA01FC24EA43
:100D28000C0C8A404CEA0202C2505DF8044B704732
:100D380030B583B000230193002800F02B810446CE
:100D4800C36D13B323689A6812F0005F05D09A68E0
:100D580022F0204222F03F029A602268936813F042
:100D6800805F1FD1936823F0104323F03F0343F0C3
:100D780080539360884B1B689B09884AA2FB032316
:100D88009B0901335B00019309E0FFF791FD002304
:100D9800236684F85830D5E7019B013B0193019BFA
:100DA800002BF9D12268936813F0805F3DD1E36D81
:100DB80043F01003E365236E43F00103236601202B
:100DC800936813F0040300D00123E16D11F0100FB4
:100DD80040F0D980002B40F0D680E36D23F4817376
:100DE80043F00203E365936813F0010F3ED1B2F1BB
:100DF800A04F1CD06A4B9A4219D06A4B996811F0DF
:100E0800010100D00121684B9B6813F0010300D059
:100E180001230B436549896811F0010100D00121C4
:100E28000B430CBF0123002312E00020C8E74FF05A
:100E3800A043996811F0010100D00121584B9B682B
:100E480013F0010300D001230B430CBF012300233F
:100E580063B1B2F1A04F69D0514B9A4264D0544962
:100E680063688A6822F47C1213438B60627FE36BA9
:100E780043EA4233E2681343A268134394F82420F8
:100E880043EA0243012A53D0E26A22B102F478729B
:100E9800216B0A4313432168CD68464A2A401A4306
:100EA800CA602268136923F04063616B0B431361C6
:100EB8002268936813F0080300D001232BBB237F1B
:100EC80094F83810490041EA8331D36823F4804309
:100ED80023F002030B43D360236973B322681369B9
:100EE80043F4803313612268D2F8C0306FF30D03E6
:100EF80021690B43C2F8C03094F84030012B29D047
:100F08002268136923F0010313616369012B31D04F
:100F18002268136B23F00F031363E36D23F00303BD
:100F280043F00103E36533E0234999E7224997E752
:100F3800A26A013A43EA4243A6E72268136923F406
:100F4800803313612268D2F8C0306FF30D03C2F802
:100F5800C030D1E721680B696FF38A03626CA56C16
:100F68002A43E56C2A43256D2A43134343F00103C2
:100F78000B61CAE721680B6B23F00F03226A013A61
:100F880013430B63C9E7E36D43F01003E3650120E6
:100F980003B030BD0120FBE708000020632D3E05AB
:100FA80000010050000400500005005000060050E9
:100FB800000700500740F0FF0003005070477047DB
:100FC80070470000F8B5044603681E685F68B3F10F
:100FD800A04F64D0984A93425FD0984B9D6805F023
:100FE8001F0516F0020F10D017F0020F0DD0E36D99
:100FF80013F0100F03D1E36D43F40063E36520465B
:1010080000F0CEFB236802221A6016F0040F02D00B
:1010180017F0040F05D116F0080F58D017F0080F75
:1010280055D0E36D13F0100F03D1E36D43F4007353
:10103800E3652368DA6812F4406F42D17E4A93422E
:1010480032D002F5806293422BD01A46934207D0E1
:10105800092D2CD840F22121E94011F0010F26D0AA
:10106800DA6812F4005F2CD11A6812F0080F28D041
:101078009A6812F0040F1CD15A6822F00C025A60C8
:10108800E36D23F48073E365E36D13F4805F18D197
:10109800E36D43F00103E36513E0694B9EE7684B9A
:1010A8009CE7A2F58072D1E74FF0A042CEE7D26864
:1010B800D7E7E36D43F01003E365236E43F00103C4
:1010C80023662046FFF77AFF23680C221A6016F081
:1010D800200F02D017F0200F05D116F0400F63D073
:1010E80017F0400F60D0E36D13F0100F03D1E36DDC
:1010F80043F40053E3652368DA6C12F4C07F16D119
:101108000121DA6812F4406F13D101204A4A934250
:1011180014D002F5806293420DD01A46934210D043
:101128007DB1062D0DD0072D0BD0D2680AE0002125
:10113800E7E70020EAE7A2F58072EFE74FF0A04268
:10114800ECE7DA6851B312F0007F03D030B312F441
:10115800005F23D1196811F0400F1FD012F4001F4F
:101168001CD19A6812F0080F10D15A6822F0600258
:101178005A60E36D23F48053E365E36D13F4807FD5
:101188000CD1E36D43F00103E36507E0E36D43F041
:101198001003E365236E43F001032366204600F045
:1011A800FBFA236860221A6016F0800F02D017F04D
:1011B800800F36D116F4807F02D017F4807F41D19A
:1011C80016F4007F02D017F4007F47D116F0100FF5
:1011D80020D017F0100F1DD0E36B6BB1002D4DD050
:1011E8002368B3F1A04F47D0134A934242D0134B20
:1011F8009B6813F4604F0AD0E36D43F48063E365A2
:10120800236E43F0020323662046FFF7D9FE2368C6
:1012180010221A6016F4806F02D017F4806F33D151
:10122800F8BDE36D43F48033E3652046FFF7C7FE5E
:10123800236880221A60BDE70001005000070050B3
:1012480000030050E36D43F40033E365204600F0EB
:10125800A5FA23684FF480721A60B1E7E36D43F48E
:101268008023E365204600F09AFA23684FF4007261
:101278001A60ABE70C4BBBE70B4BB9E72368DB689D
:1012880013F0010FC3D0B7E7E36D43F48043E36580
:10129800236E43F00803236623684FF480621A60C4
:1012A800204600F07AFABBE700030050F0B583B09F
:1012B8000023019390F85830012B00F0488204462F
:1012C8000D46012380F858300068836813F0040F36
:1012D80009D0E36D43F02003E3650120002384F87F
:1012E800583003B0F0BD0A684968FFF7F3FC20687E
:1012F800836813F0040300D00123866816F00806FB
:1013080000D00126002B3ED1002E3CD1AA68B2F1B4
:10131800004F78D02968FFF7F5FC2268536923F05D
:101328000043536169692268D368C3F3C1035B0052
:1013380099402869042873D0603252F82070AB4B6A
:101348003B402F6807F0F84C41EA0C010B4343F08F
:10135800004342F8203023682869AA69603353F8AB
:10136800201021F080710A4343F82020236829695E
:101378002A7F012A51D0603353F8212022F00072CD
:10138800324343F821202268936813F0010F16D1E5
:101398002B68E868D2F8B010C3F3120621EA0601F8
:1013A80000F018069248F0400340C3F312030B43C1
:1013B800C2F8B030EA688F4B9A4200F099802B68E7
:1013C8008D4A134200F0B9812268B2F1A04F00F0B3
:1013D80050818A498A4200F049818949896801F027
:1013E800E070884DAB4200F04681874DAB4200F07B
:1013F8004281864DAB4200F07181854DAB4200F0D1
:10140800878100206AE700222968FFF77BFC2268B1
:10141800536943F00043536184E74FF00076AAE72D
:10142800136E116EC1F384612B68C3F3120080BB85
:10143800C3F38463994234D021684B6E4A6EC2F379
:1014480084622B68C3F3120080BBC3F384639A429F
:1014580034D021688B6E8A6EC2F384622B68C3F322
:10146800120080BBC3F384639A4234D02168CB6EE8
:10147800CA6EC2F384622B68C3F3120080BBC3F345
:1014880084639A427FF47FAFCB6E23F00043CB6630
:1014980079E793FAA3F313B1B3FA83F3CAE72023E6
:1014A800C8E7136E23F000431366C5E793FAA3F366
:1014B80013B1B3FA83F3CAE72023C8E74B6E23F0CE
:1014C80000434B66C5E793FAA3F313B1B3FA83F36A
:1014D800CAE72023C8E78B6E23F000438B66C5E775
:1014E80093FAA3F313B1B3FA83F3CAE72023C8E747
:1014F80020682B68C3F3120626BB9A0E013202F04D
:101508001F02092A8CBF00220122002A52D046BBA2
:10151800990E0131890601F0F84176BB9F0E01371B
:1015280007F01F070122BA401143AEBB9B0E0133DF
:1015380003F01F0303EB43031B051943AA68FFF7D6
:10154800E1FB3CE793FAA3F24AB1B2FA82F2013224
:1015580002F01F02092A8CBF00220122D5E72022AF
:10156800F5E793FAA3F131B1B1FA81F101318906B6
:1015780001F0F841D1E72021F8E793FAA3F24AB144
:10158800B2FA82F2013202F01F024FF0010C0CFA9B
:1015980002F2C9E72022F5E793FAA3F343B1B3FABD
:1015A80083F3013303F01F0303EB43031B05C4E775
:1015B8002023F6E776BB990E0131890601F0F84140
:1015C800A6BB9F0E013707F01F070122BA4011433F
:1015D800DEBB9B0E013303F01F0303EB43031E3BEB
:1015E8001B0543F000731943A8E700BF00F0FF0391
:1015F800FFFF070000007F40000008800001005046
:1016080000070050000021C31000C090000052C71E
:10161800000084CB93FAA3F131B1B1FA81F1013121
:10162800890601F0F841CBE72021F8E793FAA3F205
:101638004AB1B2FA82F2013202F01F024FF0010CF5
:101648000CFA02F2C3E72022F5E793FAA3F35BB1A1
:10165800B3FA83F3013303F01F0303EB43031E3B89
:101668001B0543F00073BEE72023F3E701F5007183
:10167800B4E63849B2E611F4000F7FF4BAAEB2F11D
:10168800A04F04D0344B9A4201D0002026E6B2F194
:10169800A04F19D0314B9A4214D0314A40F400007F
:1016A800936823F0E073184390602E4B1B689B09E6
:1016B8002D4AA2FB03239B09013303EB43039B0041
:1016C800019306E0234AE9E7224AE7E7019B013B49
:1016D8000193019B002BF9D10020FFE511F0807FD9
:1016E8007FF48BAE1D4B9A4229D003F580639A4252
:1016F80027D0B2F1A04F09D0194940F080738A6809
:1017080022F0E07213438B600020E7E51149F4E70B
:1017180011F4800F17D1114B9A4216D0B2F1A04F95
:1017280009D00F4940F480038A6822F0E07213431D
:101738008B600020D2E50749F4E70020CEE50020C1
:10174800CCE50020CAE50020C8E50020C6E5022057
:10175800C7E500BF0003005000060050000100501C
:101768000007005008000020632D3E0510B4143017
:101778004B0E9B0003F00403C458C1F304514FF00F
:10178800070C0CFA01FC24EA0C0C8A404CEA020211
:10179800C2505DF8044B70477047704770477047F8
:1017A80070470000F0B583B00023019390F85830DB
:1017B800012B00F0F78204460D46012380F85830CB
:1017C8004369ABB10B6A012B12D0826E002A40F03C
:1017D800B9808366002343668B6A002B00F0AF80D4
:1017E8000A6A013A03F07C031A43CB6A1A43AAE057
:1017F8006B68092B00F0838023689A6812F0080F41
:1018080010D195F82520002A40F0BB80DA6822F430
:10181800401295F8260095F82410090541EA405130
:101828000A43DA602268936813F0040300D00123A6
:10183800976817F0080700D00127002B40F0408177
:10184800002F40F08081AB6A1BB1EB6A002B40F09F
:10185800A78095F82530012B00F09C80D36823F0F1
:101868000073D360002695F83030012B00F0A78074
:101878002268136923F002031361AA68B2F1004FCA
:1018880000F0A98029682068FFF770FF2268536973
:1018980023F0004353616A692168CB68C3F3C1032D
:1018A8005B009A40D5F810C0BCF1040F00F0A1808D
:1018B800603151F82C00A54B0340286800F0F8402F
:1018C8000243134343F0004341F82C30236828694E
:1018D800AA69603353F8201021F080710A4343F855
:1018E8002020236828692A7F012A7FD0603353F893
:1018F800202022F000723A4343F82020E1E0AA6A4F
:10190800BAB12B689B0E5B0203F4785302F07C0299
:101918001343EA6A13432168CA6C22F07B4222F41B
:101928006F0222F43F4222F0FF021A43CA64636640
:1019380062E72B689B0E5B0203F47853EBE70A6AB5
:10194800013A00E000222B68C3F38463696801F060
:101958001F018B401343A16E0139A166626E1343C8
:10196800636600297FF448AF2168CA6C22F07B4285
:1019780022F46F0222F43F4222F0FF021343CB64A9
:101988003AE7DA6822F4401295F8261042EA415202
:10199800DA6047E7D36843F00073D360002662E754
:1019A80095F82560012E05D0D36823F00073D36025
:1019B800002658E7E36D43F02003E36553E7216809
:1019C8000B6923F4FF736A6BA86B0243134343F05C
:1019D80002030B6151E7002229682068FFF7C6FE61
:1019E8002268536943F00043536154E74FF000778E
:1019F8007CE70B6E0A6EC2F384622B68C3F3120095
:101A080078BBC3F384639A4233D021684B6E4A6E25
:101A1800C2F384622B68C3F3120078BBC3F38463F8
:101A28009A4233D021688B6E8A6EC2F384622B6827
:101A3800C3F3120078BBC3F384639A4233D021689E
:101A4800CB6ECA6EC2F384622B68C3F3120078BBF4
:101A5800C3F384639A4234D1CB6E23F00043CB6640
:101A68002FE093FAA3F313B1B3FA83F3CBE7202360
:101A7800C9E70B6E23F000430B66C6E793FAA3F39E
:101A880013B1B3FA83F3CBE72023C9E74B6E23F0F6
:101A980000434B66C6E793FAA3F313B1B3FA83F393
:101AA800CBE72023C9E78B6E23F000438B66C6E79C
:101AB80093FAA3F313B1B3FA83F3CBE72023C9E76F
:101AC800002621688B6813F0010F15D12B68E86890
:101AD800D1F8B020C3F3120722EA070200F0180772
:101AE8001B48F8400340C3F312031343C1F8B03056
:101AF800EA68184B9A423DD02B68174A13421CD00B
:101B08002268B2F1A04F00F0E78014498A4200F041
:101B1800E0801349896801F0E070124DAB4200F093
:101B2800DD80114DAB4200F0D980104DAB4200F082
:101B380006810F4DAB4200F01E81002384F8583017
:101B4800304603B0F0BD0026BBE700BF00F0FF033E
:101B5800FFFF070000007F400000088000010050E0
:101B680000070050000021C31000C090000052C7B9
:101B7800000084CB20682B68C3F312073FBB9A0E82
:101B8800013202F01F02092A8CBF00220122002A1A
:101B980055D05FBB990E0131890601F0F8418FBB22
:101BA8004FEA936C0CF1010C0CF01F0C012202FAA5
:101BB8000CF21143AFBB9B0E013303F01F0303EB81
:101BC80043031B051943AA68FFF7D0FD94E793FA6E
:101BD800A3F24AB1B2FA82F2013202F01F02092AD4
:101BE8008CBF00220122D2E72022F5E793FAA3F165
:101BF80031B1B1FA81F10131890601F0F841CEE73E
:101C08002021F8E793FAA3F24AB1B2FA82F201323C
:101C180002F01F024FF0010C0CFA02F2C9E7202271
:101C2800F5E793FAA3F343B1B3FA83F3013303F06F
:101C38001F0303EB43031B05C4E72023F6E7E7B9BB
:101C4800990E0131890601F0F84117BB4FEA936CF0
:101C58000CF1010C0CF01F0C012202FA0CF21143DA
:101C680037BB9B0E013303F01F0303EB43031E3BFB
:101C78001B0543F000731943A5E793FAA3F131B1AB
:101C8800B1FA81F10131890601F0F841DDE720213F
:101C9800F8E793FAA3F24AB1B2FA82F2013202F0FB
:101CA8001F024FF0010C0CFA02F2D8E72022F5E7E8
:101CB80093FAA3F35BB1B3FA83F3013303F01F0381
:101CC80003EB43031E3B1B0543F00073D3E72023BC
:101CD800F3E701F500711DE733491BE711F4000F25
:101CE8007FF423AFB2F1A04F03D0304B9A427FF478
:101CF80024AFB2F1A04F20D02D4B9A421BD02D4AD1
:101D080040F40000936823F0E073184390602A4B76
:101D18001B689B09294AA2FB03239B0903EB430386
:101D28009B0018330193019B002B3FF406AF019BE6
:101D3800013B0193F7E71C4AE2E71B4AE0E711F091
:101D4800807F7FF4F6AE1A4B9A423FF4F6AE03F565
:101D580080639A423FF4F1AEB2F1A04F08D0154A21
:101D680040F08070936823F0E07318439060E4E6D5
:101D780002F54072F4E711F4800F7FF4DEAE0C4BED
:101D88009A423FF4DAAEB2F1A04F08D0094A40F4C3
:101D98008000936823F0E07318439060CDE602F565
:101DA8004072F4E70226CBE600030050000600501C
:101DB800000100500007005008000020632D3E0578
:101DC80090F85820012A00F0D68010B49DB0034640
:101DD800012280F858200022189219920068B0F168
:101DE800A04F47D0654A904247D000220192019AFD
:101DF800002A46D0926812F0040200D001228468BA
:101E080014F0040F40F0A780002A40F0A480B0F13D
:101E1800A04F42D05A4A90423CD05A4A08680028FB
:101E28005CD0906820F460404C6893F838C044EA6D
:101E38004C34204390601868B0F1A04F2FD0504C1C
:101E4800A0422CD04D48846814F0010400D001242D
:101E58004D48806810F0010000D0012020434B4C11
:101E6800A46814F0010400D0012420430CBF012011
:101E7800002025E0424A0192B9E702F580720192FA
:101E8800B5E7DA6D42F02002DA65002283F85820BF
:101E9800012068E002F50072C0E73D4ABEE74FF056
:101EA800A040846814F0010400D0012434488068FC
:101EB80010F0010000D0012020430CBF01200020B9
:101EC800002854D0906820F4716020F00F000C684E
:101ED8008968214308439060002041E0916821F41B
:101EE800604191601968B1F1A04F1AD0244881422D
:101EF80017D02249886810F0010000D0012022493B
:101F0800896811F0010100D0012101431F48806850
:101F180010F0010000D0012001430CBF0121002175
:101F280010E04FF0A041886810F0010000D00120B7
:101F38001349896811F0010100D0012101430CBF48
:101F480001210021A9B1916821F4716121F00F01EB
:101F58009160002004E0DA6D42F02002DA65012089
:101F6800002283F858201DB05DF8044B704700200C
:101F7800F6E70020F4E70220704700BF0004005095
:101F880000010050000700500005005000060050F6
:101F980000030050104B1B680BB90120704710B5A7
:101FA80004464FF47A70B0FBF3F30C4A1068B0FBA8
:101FB800F3F000F0E9FF68B90F2C01D901200AE01D
:101FC800002221464FF0FF3000F0CAFF044B1C608E
:101FD800002000E0012010BD0000002008000020C3
:101FE8000400002010B5032000F0A8FF0F20FFF721
:101FF800D1FF10B10124204610BD0446FEF74EFE65
:10200800F9E70000034A1368034909680B441360A1
:10201800704700BFC001002000000020014B186875
:10202800704700BFC0010020124BDA6802F00302BB
:10203800DB68C3F303130133032A11D00E48B0FB46
:10204800F3F00C4BDB68C3F3062303FB00F0094BEA
:10205800DB68C3F3416301335B00B0FBF3F0704707
:102068000648B0FBF3F0034BDB68C3F3062303FB1E
:1020780000F0ECE7001002400024F40000127A009F
:10208800002800F04F8270B582B00446036813F050
:10209800010F37D0A44A936803F00C03D26802F00A
:1020A80003020C2B23D0082B23D06368B3F5803FA1
:1020B8004ED0B3F5A02F51D09B4B1A6822F4803232
:1020C8001A601A6822F480221A606368002B52D0C2
:1020D800FFF7A4FF0546944B1B6813F4003F11D18A
:1020E800FFF79CFF401B6428F5D9032023E2032A4D
:1020F800D9D18D4B1B6813F4003F03D06368002BC4
:1021080000F01282236813F0020F5DD0864A9368AC
:1021180003F00C03D26802F003020C2B3AD0042B14
:102128003AD0E368002B75D07F4A136843F4807374
:102138001360FFF773FF05467B4B1B6813F4806F32
:102148005FD1FFF76BFF401B0228F5D90320F2E1AE
:10215800754A136843F480331360B6E703F180438C
:10216800A3F53C331A6842F480221A601A6842F4D4
:1021780080321A60A9E7FFF751FF05466A4B1B68D2
:1021880013F4003FBED0FFF749FF401B6428F5D980
:102198000320D0E1022AC2D1634B1B6813F4806F7D
:1021A80003D0E368002B00F0C1815F4A536823F035
:1021B800FE43216943EA016353605C4B1868FFF7EB
:1021C800E9FE002840F0B481236813F0080F4CD0D2
:1021D80063699BB3544AD2F8943043F00103C2F8C0
:1021E8009430FFF71BFF05464F4BD3F8943013F09C
:1021F800020F3AD1FFF712FF401B0228F4D903203F
:1022080099E1494A536823F0FE43216943EA01638F
:102218005360D9E7444A136823F480731360FFF7C7
:10222800FDFE0546404B1B6813F4806FCCD0FFF7CA
:10223800F5FE401B0228F5D903207CE13A4AD2F882
:10224800943023F00103C2F89430FFF7E7FE054607
:10225800354BD3F8943013F0020F06D0FFF7DEFEAB
:10226800401B0228F4D9032065E1236813F0040F0A
:1022780000F081802C4B9B6D13F0805F36D12A4B88
:102288009A6D42F080529A659B6D03F080530193DA
:10229800019B0125264B1B6813F4807F28D0A36877
:1022A800012B39D0052B45D01F4BD3F8902022F0B5
:1022B8000102C3F89020D3F8902022F00402C3F85A
:1022C8009020A368002B43D0FFF7A8FE0646164BC4
:1022D800D3F8903013F0020F4CD1FFF79FFE801B0C
:1022E80041F288339842F2D9032024E10025D1E74E
:1022F8000F4A136843F480731360FFF78FFE064696
:102308000B4B1B6813F4807FC9D1FFF787FE801B36
:102318000228F5D903200EE1034AD2F8903043F0A1
:102328000103C2F89030CCE70010024004000020FE
:1023380000700040884BD3F8902042F00402C3F8A4
:102348009020D3F8902042F00102C3F89020B8E71B
:10235800FFF764FE0646804BD3F8903013F0020F67
:1023680008D0FFF75BFE801B41F288339842F2D910
:102378000320E0E0E5B9236813F0200F35D0A36906
:10238800E3B1754AD2F8983043F00103C2F89830A7
:10239800FFF744FE0546704BD3F8983013F0020F50
:1023A80023D1FFF73BFE401B0228F4D90320C2E0EB
:1023B800694A936D23F080539365DCE7664AD2F847
:1023C800983023F00103C2F89830FFF727FE05463E
:1023D800614BD3F8983013F0020F06D0FFF71EFEBA
:1023E800401B0228F4D90320A5E0E369002B00F084
:1023F800A180594A926802F00C020C2A64D0022B80
:1024080013D0554A136823F080731360FFF706FE54
:102418000446514B1B6813F0007F4ED0FFF7FEFDBA
:10242800001B0228F5D9032085E04B4A136823F0E6
:1024380080731360FFF7F2FD0546474B1B6813F0E6
:10244800007F06D0FFF7EAFD401B0228F5D90320DC
:1024580071E0414AD36841491940236A606A0138EA
:1024680043EA0013A06A43EA0023206B40080138BE
:1024780043EA4053606B4008013843EA4063E06A2E
:1024880043EAC0631943D160136843F08073136053
:10249800D36843F08073D360FFF7C0FD04462E4B2A
:1024A8001B6813F0007F06D1FFF7B8FD001B022858
:1024B800F5D903203FE000203DE0274AD168284BAA
:1024C8000B40D360002036E0012B36D0224BDB686E
:1024D80003F00301226A914231D103F0F002616AEC
:1024E8000139B2EB011F2CD103F4FE42A16AB2EB11
:1024F800012F28D103F07842E16AB2EBC16F24D1F1
:1025080003F4C001226B5208013AB1EB425F1ED1BD
:1025180003F0C063626B5208013AB3EB426F18D103
:10252800002008E001207047012004E0012002E0BB
:10253800012000E0002002B070BD0120FBE701206F
:10254800F9E70120F7E70120F5E70120F3E701208B
:10255800F1E70120EFE700BF001002400C809F0167
:10256800FCFFEEFE1E4B9B6803F00C03042B33D0DC
:102578001B4B9B6803F00C03082B2FD0184B9B6850
:1025880003F00C030C2B01D000207047144BDA68C1
:1025980002F00302DB68C3F303130133032A11D0EB
:1025A8001048B0FBF3F00E4BDB68C3F3062303FBC4
:1025B80000F00B4BDB68C3F3416301335B00B0FBF6
:1025C800F3F070470848B0FBF3F0054BDB68C3F342
:1025D800062303FB00F0ECE7024870470248704707
:1025E800001002400024F40000127A00002800F0D5
:1025F800E680F8B50C460546744B1B6803F00F03DC
:102608008B420BD2714A136823F00F030B431360FC
:10261800136803F00F038B4240F0D3802E6816F046
:1026280001065FD06B68032B2FD0022B4DD0684B6F
:102638001B6813F4806F00F0C680FFF793FF654BAB
:1026480098424DD9624A936823F0F00343F080031F
:10265800936080265E4A936823F0030369680B43FE
:102668009360FFF7DBFC0746594B9B6803F00C03AC
:102678006A68B3EB820F35D0FFF7D0FCC01B41F27C
:1026880088339842F0D9032078E0514B1B6813F047
:10269800007F01D1012071E0FFF7C6FC4D4B984245
:1026A8001AD94B4B9B6813F0F00F05D02E6816F023
:1026B8000206CFD0AB688BB9454A936823F0F00384
:1026C80043F0800393608026C4E7414B1B6813F4F2
:1026D800003FB2D1012051E00026BBE70026B9E750
:1026E8000026B7E72B6813F0020F48D013F0040F49
:1026F80004D0374A936843F4E06393602B6813F07F
:10270800080F06D0324A936823F47C5343F4E063FD
:1027180093602F4A936823F0F003A9680B439360F2
:102728002A4B1B6803F00F03A34230D82B6813F021
:10273800040F06D0264A936823F4E063E9680B4344
:1027480093602B6813F0080F07D0214A936823F48D
:102758006053296943EAC1039360FFF703FF1C4BE9
:102768009B68C3F303131C4AD35C03F01F03D840D0
:102778001A4B18601A4B1868FFF70CFCF8BD802E2E
:10278800CED1134A936823F0F0039360C8E70F4A49
:10279800136823F00F0323431360FFF73FFC06463B
:1027A8000A4B1B6803F00F03A342BFD0FFF736FCA8
:1027B800801B41F288339842F2D90320DEE70120DA
:1027C80070470120DAE70120D8E700BF0020024067
:1027D8000010024000B4C4043C3F00080800002078
:1027E80004000020014B1868704700BF0800002053
:1027F80008B5FFF7F7FF054B9B68C3F30223044AAC
:10280800D35C03F01F03D84008BD00BF001002408E
:10281800343F000808B5FFF7E5FF054B9B68C3F395
:10282800C223044AD35C03F01F03D84008BD00BF8D
:1028380000100240343F0008F0B583B00446036836
:1028480013F4002F6ED0354B9B6D13F0805F1ED1B3
:10285800324B9A6D42F080529A659B6D03F080531B
:102868000193019B01262E4A136843F48073136079
:10287800FFF7D4FB05462A4B1B6813F4807F08D169
:10288800FFF7CCFB401B0228F5D9032502E0002600
:10289800E9E7002545BB214BD3F8903013F440738A
:1028A80015D0226D9A4212D01C4AD2F8903023F4E7
:1028B8004073D2F8901041F48031C2F89010D2F8E9
:1028C800901021F48031C2F89010C2F8903013F0C3
:1028D800010F10D145B9114AD2F8903023F4407352
:1028E800216D0B43C2F89030EEB10C4A936D23F082
:1028F8008053936517E0FFF791FB0746074BD3F822
:10290800903013F0020FE5D1FFF788FBC01B41F2AE
:1029180088339842F2D90325DCE700BF0010024053
:10292800007000400025236813F0010F08D09F4A6B
:10293800D2F8883023F0030361680B43C2F888306B
:10294800236813F0020F08D0984AD2F8883023F091
:102958000C03A1680B43C2F88830236813F0040FF6
:1029680008D0924AD2F8883023F03003E1680B434C
:10297800C2F88830236813F0080F08D08B4AD2F8C1
:10298800883023F0C00321690B43C2F888302368DC
:1029980013F0100F08D0854AD2F8883023F440731A
:1029A80061690B43C2F88830236813F0200F08D000
:1029B8007E4AD2F8883023F44063A1690B43C2F8F9
:1029C8008830236813F0400F08D0784AD2F888304E
:1029D80023F44053E1690B43C2F88830236813F0AD
:1029E800800F08D0714AD2F8883023F44043216A16
:1029F8000B43C2F88830236813F4807F08D06B4AF1
:102A0800D2F8883023F44033616A0B43C2F8883027
:102A1800236813F4003F08D0644AD2F89C3023F0AE
:102A28000303A16A0B43C2F89C30236813F4007FA8
:102A380008D05E4AD2F8883023F44023E16A0B4379
:102A4800C2F88830236813F4806F0CD0574AD2F844
:102A5800883023F44013216B0B43C2F88830236B72
:102A6800B3F5801F79D0236813F4006F0CD04F4A58
:102A7800D2F8883023F44003616B0B43C2F88830E6
:102A8800636BB3F5800F6DD0236813F4805F0CD0AF
:102A9800464AD2F8883023F04073A16B0B43C2F842
:102AA8008830A36BB3F1807F61D0236813F4005F93
:102AB8000CD03E4AD2F8883023F04063E16B0B43D8
:102AC800C2F88830E36BB3F1006F55D0236813F474
:102AD800804F0CD0354AD2F8883023F04063216CFF
:102AE8000B43C2F88830236CB3F1006F49D02368D8
:102AF80013F4004F0CD02D4AD2F8883023F04053FD
:102B0800616C0B43C2F88830636CB3F1805F3DD0D1
:102B1800236813F4803F0CD0244AD2F8883023F07D
:102B28004043A16C0B43C2F88830A36CB3F1804FCB
:102B380031D0236813F4802F0CD01C4AD2F89C3073
:102B480023F44013E16C0B43C2F89C30E36CB3F5FB
:102B5800001F25D0284603B0F0BDD36843F4801386
:102B6800D36080E7D36843F48013D3608CE7D368DD
:102B780043F48013D36098E7D36843F48013D36099
:102B8800A4E7D36843F48013D360B0E7D36843F471
:102B98008033D360BCE7D36843F48033D360C8E79D
:102BA800D36843F48013D360D4E700BF0010024019
:102BB800F0B583B0002366E085685E000324B44066
:102BC80025EA0405CC68B4402C438460456825EAAE
:102BD8000C054C68C4F300149C402C43446063E02B
:102BE8008C68012C65D173E0DD08083550F8254064
:102BF80003F0070C4FEA8C0C4FF00F0E0EFA0CFE88
:102C080024EA0E0E0C6904FA0CF444EA0E0440F8A7
:102C1800254062E0052400E0002404FA0EF42C4369
:102C28000CF1020C564D45F82C40564CA568D4437F
:102C380025EA02064F6817F4801F01D042EA05060C
:102C4800504DAE60ED6804EA05064F6817F4001FA2
:102C580001D042EA05064B4DEE606D6804EA0506B0
:102C68004F6817F4003F01D042EA0506454D6E60F3
:102C78002D682C404E6816F4803F01D042EA0504C6
:102C8800404A146001330A6832FA03F476D04FF0F0
:102C9800010C0CFA03FC1CEA0202F3D04C6804F0A5
:102CA8000304013C012C87D94C6804F00304032C6D
:102CB80096D0C4684FEA430E4FF0030C0CFA0EFC92
:102CC80024EA0C0C8C6804FA0EF444EA0C04C46080
:102CD8004C6804F00304022C86D004684FEA430EC3
:102CE8004FF0030C0CFA0EFC24EA0C0C4C6804F0B0
:102CF800030404FA0EF444EA0C0404604C6814F467
:102D0800403FBFD0204C256E45F001052566246E56
:102D180004F001040194019C4FEA930C0CF10205A4
:102D2800174C54F8255003F0030E4FEA8E0E0F246B
:102D380004FA0EF425EA0405B0F1904F3FF46CAFA5
:102D4800124CA04212D004F58064A04210D004F5C1
:102D58008064A0420ED004F58064A0420CD004F533
:102D68008064A0423FF456AF062456E7012454E796
:102D7800022452E7032450E704244EE703B0F0BDD1
:102D88000000014000040140001002400004004817
:102D98000AB181617047816270470000002836D10E
:102DA8003E4B1B6803F4C063B3F5806F08D03B4A01
:102DB800D2F8803023F48073C2F880300020704746
:102DC800364AD2F8803023F48073C2F88030136812
:102DD80023F4C06343F400731360314B1B68322241
:102DE80002FB03F32F4AA2FB03239B0C013300E0F1
:102DF800013B2A4A526912F4806F01D0002BF7D1A7
:102E0800264B5B6913F4806F44D100207047B0F5FE
:102E1800007F08D0214A136823F4C06343F4806319
:102E28001360002070471D4B1B6803F4C063B3F5A3
:102E3800806F08D0194AD2F8803043F48073C2F802
:102E4800803000207047154AD2F8803043F48073F0
:102E5800C2F88030136823F4C06343F4007313602E
:102E68000F4B1B68322202FB03F30E4AA2FB03231B
:102E78009B0C013300E0013B084A526912F4806F51
:102E880001D0002BF7D1054B5B6913F4806F03D198
:102E980000207047032070470320704700700040EF
:102EA8000800002083DE1B43024A936843F48043F2
:102EB8009360704700700040002807DB00F01F0295
:102EC800400901239340024A42F82030704700BF6E
:102ED80000E100E0002808DB0901C9B200F1604008
:102EE80000F5614080F80013704700F00F000901F9
:102EF800C9B2014B1954704714ED00E000B500F059
:102F08000700C0F1070CBCF1040F28BF4FF0040CF8
:102F1800031D062B0FD9C31E4FF0FF3E0EFA0CF00F
:102F280021EA000199400EFA03FE22EA0E0241EA64
:102F380002005DF804FB0023EEE70000074AD368AF
:102F480023F4E0631B041B0C000200F4E06003435D
:102F580043F0BF6343F40033D360704700ED00E0F3
:102F680010B50446054BD868C0F30220FFF7C6FF2A
:102F780001462046FFF7AEFF10BD00BF00ED00E0A0
:102F880008B5FFF799FF08BD0138B0F1807F0BD273
:102F98004FF0E0235861054AF02182F82310002001
:102FA800986107221A6170470120704700ED00E020
:102FB80030B4026A036A23F0010303624468836938
:102FC80023F4803323F073030D681D4322F00202BB
:102FD8008B681343214A904213D002F50062904255
:102FE8000FD002F5406290420BD002F58062904209
:102FF80007D002F58062904203D002F50062904249
:1030080007D1026A22F00402026223F00803CA68A8
:103018001343124A904213D002F5006290420FD037
:1030280002F5406290420BD002F58062904207D0D0
:1030380002F58062904203D002F50062904205D109
:1030480024F440744A6922438C69144344608561BE
:103058004A684263036230BC704700BF002C0140DD
:1030680030B4036A026A22F4807202624468C26958
:1030780022F4803222F073020D68154323F40073A2
:103088008A6843EA02231D4A904207D002F500628B
:10309800904203D002F5E052904208D1026A22F42D
:1030A8008062026223F40063CA6843EA0223134A77
:1030B800904213D002F5006290420FD002F54062B0
:1030C80090420BD002F58062904207D002F58062F0
:1030D800904203D002F50062904207D124F4405494
:1030E8004A6944EA02148A6944EA02144460C561E0
:1030F8004A68C263036230BC704700BF002C0140BD
:1031080030B4036A026A22F4805202624468C269D7
:1031180022F0807222F4E6420D6842EA052223F486
:1031280000538D6843EA05331C4DA84207D005F5C6
:103138000065A84203D005F5E055A84208D1056A04
:1031480025F48045056223F40043CD6843EA05333E
:10315800124DA84213D005F50065A8420FD005F519
:103168004065A8420BD005F58065A84207D005F553
:103178008065A84203D005F50065A84207D124F46C
:1031880040444D6944EA85148D6944EA85144460D5
:10319800C2614A680264036230BC7047002C014077
:1031A80030B4036A026A22F4803202624468026D13
:1031B80022F4803222F070020D68154323F40033A4
:1031C8008A6843EA0243114A904213D002F500622A
:1031D80090420FD002F5406290420BD002F5806217
:1031E800904207D002F58062904203D002F5006257
:1031F800904204D124F480344A6944EA02244460A9
:1032080005654A688264036230BC7047002C01403F
:1032180030B4036A026A22F4801202624468026DC2
:1032280022F0807222F4E0420D6842EA052223F47B
:1032380000138D6843EA0553114DA84213D005F5D4
:103248000065A8420FD005F54065A8420BD005F5EA
:103258008065A84207D005F58065A84203D005F52A
:103268000065A84204D124F480244D6944EA8524E9
:10327800446002654A68C264036230BC704700BF9C
:10328800002C01400368384A904216D0B0F1804FB4
:1032980013D0A2F5943290420FD002F5806290428A
:1032A8000BD002F58062904207D002F5943290422A
:1032B80003D002F5E052904203D123F070034A682C
:1032C8001343294A904222D0B0F1804F1FD0A2F573
:1032D800943290421BD002F58062904217D002F5DA
:1032E8008062904213D002F5943290420FD002F5DA
:1032F800406290420BD002F58062904207D002F5FE
:103308008062904203D002F50062904203D123F418
:103318004073CA68134323F080034A6913438A68D9
:10332800C2620A688262104A904213D002F50062B3
:1033380090420FD002F5406290420BD002F58062B5
:10334800904207D002F58062904203D002F50062F5
:10335800904201D10A690263026842F004020260E5
:103368000122426103607047002C014060B310B530
:10337800044690F83D3013B3022384F83D302146CB
:1033880051F8040BFFF77EFF012384F8483084F8D6
:103398003E3084F83F3084F8403084F8413084F877
:1033A800423084F8433084F8443084F8453084F857
:1033B800463084F8473084F83D30002010BD80F84E
:1033C8003C30FDF7F5FAD7E701207047002853D0C5
:1033D800F8B50D46044690F83D30002B47D002233F
:1033E80084F83D302268936823F4A03323F0070360
:1033F8009360214651F8040BFFF744FF21688B685E
:103408008A690E6A2868184322F4407222F003027F
:10341800AB68AF6943EA0723134323F47C4323F0E3
:10342800FC03EA68EF6942EA07221A432B6A1B0386
:103438002F6943EA0713134326F0AA066A686D69E1
:1034480042EA05123243886021688B6123681A6258
:10345800012384F8483084F83E3084F83F3084F8FB
:10346800443084F8453084F83D300020F8BD80F8B9
:103478003C30FDF7B3FAB2E70120704730B4036A75
:10348800026A22F0100202624468826922F08072A5
:1034980022F4E6420D6842EA052223F020038D68F3
:1034A80043EA05131C4DA84207D005F50065A8425C
:1034B80003D005F5E055A84208D1056A25F0400576
:1034C800056223F08003CD6843EA0513124DA84234
:1034D80013D005F50065A8420FD005F54065A84250
:1034E8000BD005F58065A84207D005F58065A84290
:1034F80003D005F50065A84207D124F440644D695E
:1035080044EA85048D6944EA8504446082614A6816
:103518008263036230BC7047002C014090F83C3055
:10352800012B36D010B50446012380F83C30142A0C
:103538002AD8DFE802F00B29292910292929152979
:1035480029291A2929291F29292924000068FFF770
:103558002FFD002019E00068FFF790FF002014E01D
:103568000068FFF77DFD00200FE00068FFF7C8FD49
:1035780000200AE00068FFF713FE002005E000685D
:10358800FFF746FE002000E00120002384F83C30CD
:1035980010BD02207047000090F83C20012A4CD052
:1035A80030B40346012280F83C20022280F83D20F6
:1035B800006842688468224DA84207D005F5006576
:1035C800A84203D005F5E055A84203D122F47002C1
:1035D8004D682A4322F0007222F070020D682A43D7
:1035E80042601A68164882421AD0B2F1804F17D04A
:1035F800A0F59430824213D000F5806082420FD04B
:1036080000F5806082420BD000F59430824207D0EA
:1036180000F54060824203D000F58050824204D118
:1036280024F08004896821439160012283F83D20B9
:10363800002083F83C0030BC70470220704700BF70
:10364800002C014090F83C30012B4AD010B40246BF
:10365800012380F83C30CB6823F440738868034327
:1036680023F480634868034323F400630868034332
:1036780023F480530869034323F400534869034340
:1036880023F48043086B034323F47023886943EAD7
:10369800004323F08053C86903431068124CA042CA
:1036A80007D004F50064A04203D004F5E054A0421A
:1036B80010D123F470038C6A43EA045323F0807317
:1036C8000C6A234323F000734C6A234323F000530E
:1036D800C96A0B434364002082F83C005DF8044B40
:1036E80070470220704700BF002C0140026852E872
:1036F800003F23F4907342E800310029F6D10268B4
:1037080002F1080353E8003F23F0805323F001033C
:10371800083242E800310029F1D1C36E012B06D0EE
:103728002023C0F88C300023C366436770470268C3
:1037380052E8003F23F0100342E800310029F6D197
:10374800EEE7000070B504468368026913434269D6
:103758001343C269134301680868964A02401A4332
:103768000A602268536823F44053E1680B435360AE
:10377800A1692268904B9A4201D0236A1943936841
:1037880023F06E4323F430630B4393602268D36ABB
:1037980023F00F03616A0B43D3622368874A93427D
:1037A80026D0874A934237D0864A93424DD0864ADC
:1037B80093425DD0854A93426CD07F4A93427ED033
:1037C80010227D498B4200F0B380E069B0F5004FCC
:1037D80000F00481082A00F26F81DFE812F032015C
:1037E800540130016D0157016D016D016D015A01E0
:1037F80002F55842D2F8882002F00302032A09D8B9
:10380800DFE802F0020472060122DAE70422D8E7B0
:103818000822D6E71022D4E702F5E632D2F888204B
:1038280002F00C020C2A0ED8DFE802F0070D0D0D8D
:10383800090D0D0D600D0D0D0B000022C1E70422CE
:10384800BFE70822BDE71022BBE702F5E432D2F851
:10385800882002F03002202A4AD005D8002A49D010
:10386800102A49D10422ACE7302A47D10822A8E718
:1038780002F5E232D2F8882002F0C002802A3FD056
:1038880004D8FAB3402A3FD104229AE7C02A3DD18E
:10389800082296E702F5E032D2F8882002F4407256
:1038A800B2F5007F34D005D8A2B3B2F5807F33D10A
:1038B800042286E7B2F5407F30D1082281E702F57D
:1038C800C832D2F8882002F44062B2F5006F27D0DF
:1038D80005D83AB3B2F5806F26D1042271E7B2F564
:1038E800406F23D108226CE702226AE7022268E7C8
:1038F800022266E7002264E7102262E7102260E7EE
:1039080002225EE700225CE710225AE7102258E7FD
:10391800022256E7002254E7102252E7102250E70D
:1039280002224EE700224CE710224AE7102248E71D
:10393800082A00F2B180DFE802F008AF3BAF38AFE9
:10394800AFAF05004FF4004004E0FEF751FF002838
:1039580000F0A480626A1E4B33F81220B0FBF2F329
:10396800656805EB4501994200F29A80B3EB053F83
:1039780000F29880002633463146FCF7E7FC09023E
:1039880041EA106100026B08C0182A46334641F12B
:103998000001FCF7DBFCA0F540720E4B9A4200F2E6
:1039A80083802368D860304664E0FEF7DBFDCEE70D
:1039B8000948CFE7F369FFCF008000400038014095
:1039C8000044004000480040004C004000500040C7
:1039D8000C3F0008FFFC0F000024F400082A65D8FB
:1039E800DFE802F0072705642A6464640B003548A1
:1039F80003E0FEF7FDFE00285AD0626A324B33F826
:103A08001230B0FBF3F06268530803EB4003B3FBDA
:103A1800F2F3A3F110014FF6EF7291424AD89AB22D
:103A280022F00F02C3F3420313432268D36000203D
:103A380020E0FEF7EFFEDEE7FEF794FDDBE7214826
:103A480003E0FEF7D5FE002838D0626A1E4B33F833
:103A58001230B0FBF3F0636800EB5300B0FBF3F0F7
:103A6800A0F110024FF6EF739A4229D8236880B26A
:103A7800D86000200123A4F86A30A4F86830002335
:103A88006367A36770BDFEF7C5FEDCE7FEF76AFD56
:103A9800D9E74FF40040D8E70120EBE70020E9E739
:103AA8000120E7E70120E5E70120E3E70120E1E75E
:103AB8000020DFE70120DDE70120DBE70020D9E770
:103AC8000120D7E70024F4000C3F0008836A13F0B4
:103AD800080F06D00268536823F40043816B0B4338
:103AE8005360836A13F0010F06D00268536823F409
:103AF8000033C16A0B435360836A13F0020F06D088
:103B08000268536823F48033016B0B435360836A64
:103B180013F0040F06D00268536823F48023416B26
:103B28000B435360836A13F0100F06D00268936842
:103B380023F48053C16B0B439360836A13F0200F07
:103B480006D00268936823F40053016C0B4393601A
:103B5800836A13F0400F0AD00268536823F4801375
:103B6800416C0B435360436CB3F5801F0BD0836AE1
:103B780013F0800F06D00268536823F40023C16C49
:103B88000B43536070470268536823F4C003816C89
:103B98000B435360EBE72DE9F84305460E461746FD
:103BA8009946DDF820802B68DC6936EA04040CBFEE
:103BB80001240024BC4236D1B8F1FF3FF3D0FEF710
:103BC8002DFAA0EB0900404530D8B8F1000F2FD0EE
:103BD8002B681A6812F0040FE5D0802EE3D0402E2F
:103BE800E1D0DA6912F0080F11D1DA6912F4006F26
:103BF800D9D04FF400621A622846FFF777FD2023D8
:103C0800C5F89030002385F8843003200CE00824A0
:103C18001C622846FFF76AFDC5F89040002385F826
:103C28008430012000E00020BDE8F8830320FBE792
:103C38000320F9E730B583B004460023C0F890307C
:103C4800FEF7ECF905462268126812F0080F10D149
:103C580023681B6813F0040F28D12023C4F8883088
:103C6800C4F88C300020E066206784F8840003B034
:103C780030BD6FF07E430093034600224FF40011DD
:103C88002046FFF788FF0028E2D0226852E8003F6C
:103C980023F0800342E800310029F6D12023C4F83C
:103CA8008830002384F884300320E0E76FF07E43F7
:103CB80000932B4600224FF480012046FFF76BFF4C
:103CC8000028CAD0226852E8003F23F4907342E8E3
:103CD80000310029F6D1226802F1080353E8003FB9
:103CE80023F00103083242E800310029F3D12023F0
:103CF800C4F88C30002384F884300320B7E778B305
:103D080010B50446D0F888300BB32423C4F88830A3
:103D18002268136823F001031360A36AE3B92046FD
:103D2800FFF710FD012811D02268536823F490434F
:103D380053602268936823F02A039360226813680B
:103D480043F0010313602046FFF774FF10BD80F8AD
:103D58008430FCF74BFFD8E72046FFF7B7FEDEE7D5
:103D680001207047436E2BB90123A0F86A30A0F8F0
:103D78006830704730B403689A68C2F34262996841
:103D8800490F094D6B5CDB00084C615C93FBF1F358
:103D9800A0F86A30AB5CDB00A25C93FBF2F3A0F8FE
:103DA800683030BC704700BF2C3F0008243F000833
:103DB80090F88430012B18D0012380F88430242314
:103DC800C0F8883003681A68196821F00101196081
:103DD80022F000520023436601680A602022C0F8DE
:103DE800882080F88430184670470220704738B51C
:103DF80090F88430012B1DD00446012380F88430CC
:103E08002423C0F8883003681D681A6822F001026C
:103E18001A600268936823F0604319439160FFF7C2
:103E2800A1FF23681D602023C4F88830002084F88F
:103E3800840038BD0220FCE738B590F88430012BA7
:103E48001DD00446012380F884302423C0F888302C
:103E580003681D681A6822F001021A6002689368F4
:103E680023F0606319439160FFF77CFF23681D60AE
:103E78002023C4F88830002084F8840038BD02204C
:103E8800FCE70000034AD2F8883043F47003C2F814
:103E98008830704700ED00E00D488546FFF7F2FFD7
:103EA8000C480D490D4A002302E0D458C45004338D
:103EB800C4188C42F9D30A4A0A4C002301E0136063
:103EC8000432A242FBD3FCF7C7F9FCF7F0FBFEE78C
:103ED80000000220000000200C0000205C3F0008C9
:103EE8000C000020C4010020FEE70000F8B500BF68
:103EF800F8BC08BC9E467047F8B500BFF8BC08BCC3
:043F08009E4670471A
:103F0C00010002000400060008000A000C0010006A
:103F1C002000400080000001080402040801010197
:103F2C00010101030701000000000000010203046D
:103F3C00000000000000000001020304060708094D
:083F4C0038C4FF7F01000000F2
:043F5400410200081E
:043F58001902000842
:0C3F5C0001000000100000000024F40030
:0400000508003EA110
:00000001FF
